{
  "contractName": "Exchange",
  "abi": [
    {
      "constant": false,
      "inputs": [],
      "name": "acceptOwnership",
      "outputs": [],
      "payable": false,
      "stateMutability": "nonpayable",
      "type": "function"
    },
    {
      "constant": true,
      "inputs": [
        {
          "name": "",
          "type": "address"
        }
      ],
      "name": "mapTokensSupported",
      "outputs": [
        {
          "name": "addr",
          "type": "address"
        },
        {
          "name": "symbol",
          "type": "string"
        },
        {
          "name": "timestamp",
          "type": "uint256"
        }
      ],
      "payable": false,
      "stateMutability": "view",
      "type": "function"
    },
    {
      "constant": true,
      "inputs": [],
      "name": "owner",
      "outputs": [
        {
          "name": "",
          "type": "address"
        }
      ],
      "payable": false,
      "stateMutability": "view",
      "type": "function"
    },
    {
      "constant": false,
      "inputs": [
        {
          "name": "_newOwner",
          "type": "address"
        }
      ],
      "name": "changeOwner",
      "outputs": [],
      "payable": false,
      "stateMutability": "nonpayable",
      "type": "function"
    },
    {
      "constant": true,
      "inputs": [
        {
          "name": "",
          "type": "uint256"
        }
      ],
      "name": "tokensSupported",
      "outputs": [
        {
          "name": "",
          "type": "address"
        }
      ],
      "payable": false,
      "stateMutability": "view",
      "type": "function"
    },
    {
      "constant": true,
      "inputs": [],
      "name": "halted",
      "outputs": [
        {
          "name": "",
          "type": "bool"
        }
      ],
      "payable": false,
      "stateMutability": "view",
      "type": "function"
    },
    {
      "constant": true,
      "inputs": [],
      "name": "newOwner",
      "outputs": [
        {
          "name": "",
          "type": "address"
        }
      ],
      "payable": false,
      "stateMutability": "view",
      "type": "function"
    },
    {
      "constant": false,
      "inputs": [
        {
          "name": "halt",
          "type": "bool"
        }
      ],
      "name": "setHalt",
      "outputs": [],
      "payable": false,
      "stateMutability": "nonpayable",
      "type": "function"
    },
    {
      "anonymous": false,
      "inputs": [
        {
          "indexed": true,
          "name": "symbol",
          "type": "string"
        },
        {
          "indexed": true,
          "name": "tokenAddress",
          "type": "address"
        },
        {
          "indexed": true,
          "name": "timestamp",
          "type": "uint256"
        }
      ],
      "name": "TokenAdded",
      "type": "event"
    },
    {
      "anonymous": false,
      "inputs": [
        {
          "indexed": true,
          "name": "code",
          "type": "int256"
        },
        {
          "indexed": true,
          "name": "allowed",
          "type": "uint256"
        },
        {
          "indexed": true,
          "name": "traded",
          "type": "uint256"
        }
      ],
      "name": "TradeFailed",
      "type": "event"
    },
    {
      "constant": false,
      "inputs": [
        {
          "name": "symbol",
          "type": "string"
        },
        {
          "name": "addr",
          "type": "address"
        }
      ],
      "name": "addToken",
      "outputs": [
        {
          "name": "",
          "type": "bool"
        }
      ],
      "payable": false,
      "stateMutability": "nonpayable",
      "type": "function"
    },
    {
      "constant": true,
      "inputs": [
        {
          "name": "addr",
          "type": "address"
        }
      ],
      "name": "hasToken",
      "outputs": [
        {
          "name": "",
          "type": "bool"
        }
      ],
      "payable": false,
      "stateMutability": "view",
      "type": "function"
    },
    {
      "constant": false,
      "inputs": [
        {
          "name": "makerToken",
          "type": "address"
        },
        {
          "name": "takerToken",
          "type": "address"
        },
        {
          "name": "makerAddress",
          "type": "address"
        },
        {
          "name": "takerAddress",
          "type": "address"
        },
        {
          "name": "makerAmount",
          "type": "uint256"
        },
        {
          "name": "takerAmount",
          "type": "uint256"
        }
      ],
      "name": "fulfillOrder",
      "outputs": [
        {
          "name": "",
          "type": "bool"
        }
      ],
      "payable": false,
      "stateMutability": "nonpayable",
      "type": "function"
    }
  ],
  "bytecode": "0x60806040526001805460a060020a60ff0219167401000000000000000000000000000000000000000017905560008054600160a060020a03191633179055610b5d8061004c6000396000f3006080604052600436106100ae5763ffffffff7c010000000000000000000000000000000000000000000000000000000060003504166379ba509781146100b3578063814e9036146100ca5780638da5cb5b146101795780639bb0f599146101aa578063a6f9dae1146101df578063aaba2b0614610200578063acb33bf914610239578063b0b22c2c14610251578063b9b8af0b146102b5578063d4ee1d90146102ca578063f4954387146102df575b600080fd5b3480156100bf57600080fd5b506100c86102f9565b005b3480156100d657600080fd5b506100eb600160a060020a036004351661033e565b60408051600160a060020a0385168152908101829052606060208083018281528551928401929092528451608084019186019080838360005b8381101561013c578181015183820152602001610124565b50505050905090810190601f1680156101695780820380516001836020036101000a031916815260200191505b5094505050505060405180910390f35b34801561018557600080fd5b5061018e6103f5565b60408051600160a060020a039092168252519081900360200190f35b3480156101b657600080fd5b506101cb600160a060020a0360043516610404565b604080519115158252519081900360200190f35b3480156101eb57600080fd5b506100c8600160a060020a036004351661043e565b34801561020c57600080fd5b506101cb600160a060020a036004358116906024358116906044358116906064351660843560a435610484565b34801561024557600080fd5b5061018e600435610845565b34801561025d57600080fd5b506040805160206004803580820135601f81018490048402850184019095528484526101cb94369492936024939284019190819084018382808284375094975050509235600160a060020a0316935061086d92505050565b3480156102c157600080fd5b506101cb610a0f565b3480156102d657600080fd5b5061018e610a30565b3480156102eb57600080fd5b506100c86004351515610a3f565b600154600160a060020a031633141561033c576001546000805473ffffffffffffffffffffffffffffffffffffffff1916600160a060020a039092169190911790555b565b6002602081815260009283526040928390208054600180830180548751601f60001994831615610100029490940190911696909604918201859004850286018501909652808552600160a060020a03909116949193928301828280156103e55780601f106103ba576101008083540402835291602001916103e5565b820191906000526020600020905b8154815290600101906020018083116103c857829003601f168201915b5050505050908060020154905083565b600054600160a060020a031681565b600160a060020a0380821660009081526002602052604081208054919290911615156104335760009150610438565b600191505b50919050565b600054600160a060020a0316331461045557600080fd5b6001805473ffffffffffffffffffffffffffffffffffffffff1916600160a060020a0392909216919091179055565b600080548190819081908190600160a060020a031633146104a457600080fd5b60015474010000000000000000000000000000000000000000900460ff16156104cc57600080fd5b6104d58b610404565b15156104e057600080fd5b6104e98a610404565b15156104f457600080fd5b600160a060020a038916151561050957600080fd5b600160a060020a038816151561051e57600080fd5b6000871161052b57600080fd5b6000861161053857600080fd5b604080517fdd62ed3e000000000000000000000000000000000000000000000000000000008152600160a060020a038b8116600483015230602483015291518d96508c95509186169163dd62ed3e916044808201926020929091908290030181600087803b1580156105a957600080fd5b505af11580156105bd573d6000803e3d6000fd5b505050506040513d60208110156105d357600080fd5b505191508682101561061857868260017f4eb8c0f36b98b7e7a6404a824e8a543127d7f3bd018cc90421be2f9b82a88fd160405160405180910390a460009450610837565b604080517fdd62ed3e000000000000000000000000000000000000000000000000000000008152600160a060020a038a8116600483015230602483015291519185169163dd62ed3e916044808201926020929091908290030181600087803b15801561068357600080fd5b505af1158015610697573d6000803e3d6000fd5b505050506040513d60208110156106ad57600080fd5b50519050858110156106f257858160027f4eb8c0f36b98b7e7a6404a824e8a543127d7f3bd018cc90421be2f9b82a88fd160405160405180910390a460009450610837565b604080517f23b872dd000000000000000000000000000000000000000000000000000000008152600160a060020a038b811660048301528a81166024830152604482018a90529151918616916323b872dd916064808201926020929091908290030181600087803b15801561076657600080fd5b505af115801561077a573d6000803e3d6000fd5b505050506040513d602081101561079057600080fd5b5050604080517f23b872dd000000000000000000000000000000000000000000000000000000008152600160a060020a038a811660048301528b81166024830152604482018990529151918516916323b872dd916064808201926020929091908290030181600087803b15801561080657600080fd5b505af115801561081a573d6000803e3d6000fd5b505050506040513d602081101561083057600080fd5b5060019550505b505050509695505050505050565b600380548290811061085357fe5b600091825260209091200154600160a060020a0316905081565b60008054600160a060020a0316331461088557600080fd5b60015474010000000000000000000000000000000000000000900460ff16156108ad57600080fd5b600160a060020a03821615156108c257600080fd5b6108cb82610404565b156108d557600080fd5b600160a060020a0382166000908152600260209081526040909120845161090492600190920191860190610a96565b50600160a060020a0382166000818152600260208181526040808420805473ffffffffffffffffffffffffffffffffffffffff199081168717825542919094018190556003805460018101825595527fc2575a0e9e593c00f959f8c92f12db2869c3395a3b0502d05e2516446f71f85b909401805490931685179092559051865192939287928291908401908083835b602083106109b35780518252601f199092019160209182019101610994565b5181516020939093036101000a60001901801990911692169190911790526040519201829003822093507f021066d9f43780503f155e50fc23c3d3ac8ba8edd3fbc3aee45c67ddb5f7078892506000919050a450600192915050565b60015474010000000000000000000000000000000000000000900460ff1681565b600154600160a060020a031681565b600054600160a060020a03163314610a5657600080fd5b60018054911515740100000000000000000000000000000000000000000274ff000000000000000000000000000000000000000019909216919091179055565b828054600181600116156101000203166002900490600052602060002090601f016020900481019282601f10610ad757805160ff1916838001178555610b04565b82800160010185558215610b04579182015b82811115610b04578251825591602001919060010190610ae9565b50610b10929150610b14565b5090565b610b2e91905b80821115610b105760008155600101610b1a565b905600a165627a7a723058204707a74c0e298bcba7a8939fde020c81fadc6abf5bb167a5a68848a6ec76c7a20029",
  "source": "pragma solidity ^0.4.23;\n\nimport './Halt.sol';\nimport './ERC20Protocol.sol';\n\ncontract Exchange is Halt {\n\n    /**\n    *\n    * STRUCTURES\n    *\n    */\n    struct Token {\n        address addr;\n        string  symbol;\n\t\tuint    timestamp;\n    }\n\n    /**\n    *\n    * VARIABLES\n    *\n    */\n    /// @notice list of tokens supported\n\tmapping(address => Token) public mapTokensSupported;\n\n    /// @notice list of token addresses\n\taddress[] public tokensSupported;\n\n    /**\n    *\n    * EVENTS\n    *\n    **/\n\n    /// @notice              event of token added to exchange\n    /// @param symbol        symbol of token\n    /// @param tokenAddress  address of token contract\n    /// @param timestamp     timestamp when token add occurred\n    event TokenAdded(string indexed symbol, address indexed tokenAddress, uint indexed timestamp);\n\n    /// @notice              event of trade complete\n    /// @param makerToken    contract address that maker wants to sell\n    /// @param takerToken    contract address that taker wants to sell\n    /// @param makerAddress  maker wan address\n    /// @param takerAddress  taker wan address\n    /// @param makerAmount   amount that maker gives\n    /// @param takerAmount   amount that taker gives\n    // event TradeFulfilled(address indexed makerToken, address indexed takerToken, address makerAddress, address takerAddress, uint makerAmount, uint takerAmount);\n\n    /// @notice         event of trade failure\n    /// @param code     error code\n    /// @param allowed  amount approved on token contract\n    /// @param traded   amount requested to be exchanged\n    event TradeFailed(int indexed code, uint indexed allowed, uint indexed traded);\n\n    /**\n    *\n    * MANIPULATIONS\n    *\n    */\n\n    /// @notice         add token to exchange\n    /// @param  symbol  symbol of token\n    /// @param  addr    address of token contract\n    function addToken(string symbol, address addr)\n\t    public\n        onlyOwner\n        notHalted\n        returns(bool)\n\t{\n        require(addr != address(0x00));\n\n\t\t// check that the given token address is not already registered with\n\t\t// the Exchange\n        require(!hasToken(addr));\n\n\t\t// add token to supported tokens map\n        mapTokensSupported[addr].symbol = symbol;\n        mapTokensSupported[addr].addr = addr;\n        mapTokensSupported[addr].timestamp = now;\n\n\t\t// add to tokens array\n\t\ttokensSupported.push(addr);\n\n\t\t// trigger event\n        emit TokenAdded(symbol, addr, now);\n\n        return true;\n    }\n\n    /// @notice       check if token is registered\n    /// @param  addr  address of token contract\n    /// @return       true if `addr` is a registered token\n    function hasToken(address addr)\n\t    public\n\t\tconstant\n\t\treturns(bool)\n\t{\n        Token storage token = mapTokensSupported[addr];\n        if (token.addr == address(0x00)) {\n            return false;\n        }\n        return true;\n    }\n\n    /// @notice              fulfill trade\n    /// @param makerToken    contract address that maker wants to sell\n    /// @param takerToken    contract address that taker wants to sell\n    /// @param makerAddress  maker wan address\n    /// @param takerAddress  taker wan address\n    /// @param makerAmount   amount that maker gives\n    /// @param takerAmount   amount that taker gives\n    function fulfillOrder(address makerToken, address takerToken, address makerAddress, address takerAddress, uint makerAmount, uint takerAmount)\n\t    public\n\t\tonlyOwner\n\t\tnotHalted\n\t\treturns(bool)\n\t{\n        require(hasToken(makerToken));\n        require(hasToken(takerToken));\n        require(makerAddress != address(0x00));\n        require(takerAddress != address(0x00));\n        require(makerAmount > 0);\n        require(takerAmount > 0);\n\n        ERC20Protocol tokenA = ERC20Protocol(makerToken);\n        ERC20Protocol tokenB = ERC20Protocol(takerToken);\n\n        // check maker allowance\n\t\tuint remainingA = tokenA.allowance(makerAddress, this);\n\t\tif (remainingA < makerAmount) {\n\t\t    emit TradeFailed(1, remainingA, makerAmount);\n\t\t\treturn false;\n\t\t}\n\n        // check taker allowance\n\t\tuint remainingB = tokenB.allowance(takerAddress, this);\n\t\tif (remainingB < takerAmount) {\n\t\t    emit TradeFailed(2, remainingB, takerAmount);\n\t\t\treturn false;\n\t\t}\n\n        tokenA.transferFrom(makerAddress, takerAddress, makerAmount);\n        tokenB.transferFrom(takerAddress, makerAddress, takerAmount);\n\n\t    return true;\n\t}\n}\n",
  "sourcePath": "/home/jgoyette/dex-ipfs/contracts/contracts/Exchange.sol",
  "compiler": {
    "name": "solc",
    "version": "0.4.24+commit.e67f0147.Emscripten.clang"
  },
  "schemaVersion": "2.0.1",
  "updatedAt": "2018-09-26T20:16:47.430Z"
}